:020000040000FA
:100000000C945D000C9485000C9485000C94850084
:100010000C9485000C9485000C9485000C9485004C
:100020000C9485000C9485000C9485000C9485003C
:100030000C9485000C9485000C9485000C9485002C
:100040000C9405060C9485000C94D3050C94AD0516
:100050000C9485000C9485000C9485000C9485000C
:100060000C944F060C94850000000008000201006B
:100070000003040700000000000000000000000072
:10008000250028002B0000000000240027002A0083
:10009000040404040404040402020202020203032E
:1000A0000303030301020408102040800102040836
:1000B00010200102040810206E0711241FBECFEF8C
:1000C000D8E0DEBFCDBF12E0A0E0B1E0EAE7F4E1A6
:1000D00002C005900D92AC33B107D9F723E0ACE331
:1000E000B2E001C01D92A03CB207E1F710E0CDE5FF
:1000F000D0E004C02197FE010E94350ACC35D1071B
:10010000C9F70E94B6070C943B0A0C94000090E0DB
:10011000FC01EC55FF4F249180579F4FFC018491C7
:10012000882399F090E0880F991FFC01EA57FF4F50
:10013000A591B491FC01E458FF4F859194918FB73C
:10014000F894EC91E22BEC938FBF089508950895F5
:10015000AF92BF92CF92DF92EF92FF920F931F93D5
:10016000CF93DF936C017B018B01040F151FEB0113
:100170005E01AE18BF08C017D10759F06991D601CA
:10018000ED91FC910190F081E02DC6010995892B3C
:1001900079F7C501DF91CF911F910F91FF90EF90FB
:1001A000DF90CF90BF90AF900895FC01538D448DA8
:1001B000252F30E0842F90E0821B930B541710F012
:1001C000CF96089501970895FC01918D828D98171F
:1001D00061F0A28DAE0FBF2FB11D5D968C91928DF7
:1001E0009F5F9F73928F90E008958FEF9FEF089528
:1001F000FC01918D828D981731F0828DE80FF11DF1
:10020000858D90E008958FEF9FEF0895FC01918D0B
:10021000228D892F90E0805C9F4F821B91098F7304
:10022000992708958BE093E00E94060121E0892B35
:1002300009F420E0822F089580E090E0892B29F0D6
:100240000E94120181110C9400000895FC01A48DFC
:10025000A80FB92FB11DA35ABF4F2C91848D90E0E8
:1002600001968F739927848FA689B7892C93A089CB
:10027000B1898C91837080648C93938D848D981355
:1002800006C00288F389E02D80818F7D80830895E8
:10029000EF92FF920F931F93CF93DF93EC0181E0D6
:1002A000888F9B8D8C8D98131AC0E889F98980817D
:1002B00085FF15C09FB7F894EE89FF896083E889B0
:1002C000F98980818370806480839FBF81E090E0A2
:1002D000DF91CF911F910F91FF90EF900895F62E2F
:1002E0000B8D10E00F5F1F4F0F731127E02E8C8DC9
:1002F0008E110CC00FB607FCFACFE889F98980810E
:1003000085FFF5CFCE010E942601F1CFEB8DEC0FDA
:10031000FD2FF11DE35AFF4FF0829FB7F8940B8F2A
:10032000EA89FB8980818062CFCFCF93DF93EC0194
:10033000888D8823B9F0AA89BB89E889F9898C91CD
:1003400085FD03C0808186FD0DC00FB607FCF7CF89
:100350008C9185FFF2CF808185FFEDCFCE010E9489
:100360002601E9CFDF91CF91089590E0FC01E85993
:10037000FF4F2491FC01EC55FF4F3491FC01E057F5
:10038000FF4FE491EE23C9F0222339F0233001F12D
:10039000A8F4213019F1223029F1F0E0EE0FFF1F0F
:1003A000E458FF4FA591B4918FB7F894EC91611187
:1003B00026C030953E233C938FBF08952730A9F087
:1003C0002830C9F0243049F7809180008F7D03C028
:1003D000809180008F7780938000DFCF84B58F7706
:1003E00084BDDBCF84B58F7DFBCF8091B0008F774C
:1003F0008093B000D2CF8091B0008F7DF9CF3E2B9B
:10040000DACF3FB7F8948091F5029091F602A0916F
:10041000F702B091F80226B5A89B05C02F3F19F04E
:100420000196A11DB11D3FBFBA2FA92F982F882774
:10043000BC01CD01620F711D811D911D42E0660F4F
:10044000771F881F991F4A95D1F708958F929F9221
:10045000AF92BF92CF92DF92EF92FF924B015C017D
:100460000E9401026B017C010E9401026C197D094E
:100470008E099F09683E734081059105A8F321E02C
:10048000821A9108A108B10888EEC80E83E0D81E30
:10049000E11CF11C81149104A104B10429F7FF901F
:1004A000EF90DF90CF90BF90AF909F908F90089586
:1004B000089520917F02260F3327331F2132310503
:1004C000ECF42091C802FC0190E080E0243069F057
:1004D00082E00895A0917F022191AC01415A5D4FC5
:1004E000A40FB52FB11D2C930196861798F3809118
:1004F0007F02680F60937F0280E0089581E0089595
:100500001092C80281E08093C7021092A20261E0BB
:1005100082E10E94B50161E083E10E94B501E9EB4F
:10052000F0E080818E7F808380818D7F808388E46E
:100530008093B80085E48093BC000895CF93DF9347
:1005400091E090935E028823B9F0C091B800D091F9
:10055000BA008091BC008A7B8093BC0060E082E19D
:100560000E94B50160E083E10E94B5010E94800213
:10057000D093BA00C093B800DF91CF910895089549
:10058000E09100038091FF02E81730F4F0E0E25CB4
:10059000FD4F808190E008958FEF9FEF0895909137
:1005A00000038091FF022FEF3FEF981748F4E92FE7
:1005B000F0E0E25CFD4F208130E09F5F909300030C
:1005C000C90108958091FF0290910003891B990B46
:1005D0000895CF92DF92EF92FF920F931F93CF93E4
:1005E000DF937C01CB018A012091CE02222389F086
:1005F000EB016B01C40ED51ECC15DD0569F06991C8
:10060000D701ED91FC910190F081E02DC701099592
:10061000F3CF642F0E945902C801DF91CF911F913F
:100620000F91FF90EF90DF90CF900895CF93DF93DD
:100630001F92CDB7DEB769832091CE022223F9F055
:100640002091FD02203258F021E030E0FC0133839C
:10065000228390E080E00F90DF91CF910895809108
:10066000FE02E82FF0E0E153FD4F998190838F5F08
:100670008093FE028093FD0281E090E0ECCF61E088
:10068000CE0101960E945902F7CFCF92DF92EF92EE
:10069000FF920F931F93CF93DF93FC01C48121E05E
:1006A0002093CE02C093EF021092FE021092FD0240
:1006B0008385682B88EA93E00E941603D091FD029F
:1006C000D13208F092C00E9401026B017C0180913E
:1006D000C802811165C082E08093C80281E08093E6
:1006E000C7028FEF8093C6021092C502D093C40256
:1006F000AFECB2E0E4EAF2E080E0D81385C01092FB
:10070000A3028091A302CC0FC82BC093A3028091B7
:10071000A202813009F07CC01092A2020E94010264
:100720006B017C018091A3028093BB008091CA027F
:100730009091CB02A091CC02B091CD02892B8A2B53
:100740008B2B99F00E9401020091CA021091CB02FA
:100750002091CC023091CD026C197D098E099F0940
:100760000617170728073907E0F18091BC0083FDC1
:10077000D9CF85EC8093BC000E9401026B017C0103
:100780008091C802823009F445C08091C6028F3F33
:1007900061F18091C602803241F18091C60225C08C
:1007A0008091CA029091CB02A091CC02B091CD026F
:1007B000892B8A2B8B2B09F48ACF0E94010200918E
:1007C000CA021091CB022091CC023091CD026C195B
:1007D0007D098E099F09061717072807390708F0B2
:1007E00076CF8091C9020E949E021092FE02109262
:1007F000FD021092CE02DF91CF911F910F91FF90D9
:10080000EF90DF90CF9008959D9191938F5F75CF7A
:1008100085EEB0CF8091CA029091CB02A091CC021C
:10082000B091CD02892B8A2B8B2B09F4A9CF0E9482
:1008300001020091CA021091CB022091CC023091AA
:10084000CD026C197D098E099F0906171707280725
:10085000390708F095CFC5CF90E080E008950F9359
:100860001F93CF93DF93082F162FD42FC8E06D2F3F
:10087000661F6627661F802F0E94B501DD0F61E0AD
:10088000812F0E94B50160E0812F0E94B501C15007
:1008900071F7DF91CF911F910F910895CF93C82FDA
:1008A00060E083E00E94B5014C2F62E084E00E948A
:1008B0002F0461E083E0CF910C94B501CF93C62F54
:1008C00095B1906395B90E944E0485B18F7C85B92E
:1008D0008C2F0E944E0485B18F7C806285B985B1D2
:1008E0008F7C85B9CF910895CF93C82F60E086E0C3
:1008F0000E94B5014C2F65E087E00E942F0461E063
:1009000086E0CF910C94B501CF93C62F95B19C6032
:1009100095B90E94740485B1837F85B98C2F0E949C
:10092000740485B1837F886085B985B1837F85B97B
:10093000CF91089521E030E0A90102C0440F551F76
:100940008A95E2F7CA0120913C0230913D0266236C
:10095000A1F0822B932B90933D0280933C0260E0A8
:100960008FE00E94B50140913C026EE080E10E9460
:100970002F0461E08FE00C94B501809582239323CE
:10098000EACF0F931F93CF938C01C62F0E9445038C
:100990006C2F6460C8010E9445036C2F6B7FC801F7
:1009A0000E94450383EC90E00197F1F7CF911F91EE
:1009B0000F9108950F931F93CF93DF938C01D62F40
:1009C000C42F607F642B0E94C10480E1D89FB001D6
:1009D00011246C2BC801DF91CF911F910F910C94C2
:1009E000C10441E00E94DA0481E090E008958F9212
:1009F0009F92AF92BF920F931F93CF93DF93CDB788
:100A0000DEB7A1970FB6F894DEBF0FBECDBF19A217
:100A1000423008F44AE08E010F5D1F4F842E912C66
:100A2000B12CA12CA50194010E94FF09E62FB90168
:100A3000CA01EA3044F5E05DD801EE938D01232B25
:100A4000242B252B79F790E080E0109769F0FD01C9
:100A500001900020E9F73197AF014A1B5B0BBD0104
:100A60008BE093E00E94A800A1960FB6F894DEBF39
:100A70000FBECDBFDF91CF911F910F91BF90AF906F
:100A80009F908F900895E95CD7CFCF92DF92EF923D
:100A9000FF92CF93DF936C01990FEE08FF08F7FEEA
:100AA00019C06DE28BE093E00E944801EC016627DB
:100AB0007727CB016C197D098E099F094AE00E94B6
:100AC000F7048C0F9D1FDF91CF91FF90EF90DF9087
:100AD000CF9008954AE0C701B601DF91CF91FF9012
:100AE000EF90DF90CF900C94F70485ED8093BC00DD
:100AF0008091CA029091CB02A091CC02B091CD021C
:100B00000796A11DB11D23E0B695A79597958795EA
:100B10002A95D1F72091BC0024FD03C01092C80291
:100B200008954091CA025091CB026091CC0270911D
:100B3000CD02452B462B472B69F30097A105B10544
:100B400041F025E32A95F1F700000197A109B109C9
:100B5000E1CF8091C9020C949E021F920F920FB6B2
:100B60000F9211242F933F934F935F936F937F9333
:100B70008F939F93AF93BF93EF93FF938BE093E09B
:100B80000E942601FF91EF91BF91AF919F918F91AC
:100B90007F916F915F914F913F912F910F900FBE79
:100BA0000F901F9018951F920F920FB60F9211245D
:100BB0002F938F939F93EF93FF93E0911B03F091FB
:100BC0001C038081E0912103F091220382FD1BC070
:100BD0009081809124038F5F8F732091250382176A
:100BE00041F0E0912403F0E0E55FFC4F958F8093A6
:100BF0002403FF91EF919F918F912F910F900FBE42
:100C00000F901F9018958081F4CF1F920F920FB60E
:100C10000F9211242F933F938F939F93AF93BF9382
:100C20008091F1029091F202A091F302B091F4024E
:100C30003091F00223E0230F2D3758F50196A11DC6
:100C4000B11D2093F0028093F1029093F202A093E1
:100C5000F302B093F4028091F5029091F602A09114
:100C6000F702B091F8020196A11DB11D8093F50223
:100C70009093F602A093F702B093F802BF91AF9160
:100C80009F918F913F912F910F900FBE0F901F90CA
:100C9000189526E8230F0296A11DB11DD2CF1F92F1
:100CA0000F920FB60F9211242F933F934F935F93A0
:100CB0006F937F938F939F93AF93BF93EF93FF9324
:100CC0008091B900887F803609F44AC0F0F58832F7
:100CD00009F4A7C018F5803109F49BC0B8F4882343
:100CE00009F4F9C0883009F494C0FF91EF91BF91E5
:100CF000AF919F918F917F916F915F914F913F91B4
:100D00002F910F900FBE0F901F901895883109F406
:100D100088C0803251F78093C60214C0803409F431
:100D20009DC040F48033B9F38833F9F68093C6024E
:100D300085ECB0C0803509F485C0883509F496C0CB
:100D4000883499F60E947505D0CF883909F48CC093
:100D500038F5883729F050F4883611F0803729F6B5
:100D600083E08093C8021092A10257C0883809F42A
:100D70007BC0803919F0803809F0B7CF8091A1028B
:100D8000803208F071C0E091A10281E08E0F809363
:100D9000A1028091BB00F0E0EF57FD4F80833DC082
:100DA000803B39F0E0F4803A09F479C0883A09F0E0
:100DB0009CCF84E08093C8021092800210927F0240
:100DC000E091FB02F091FC02099580917F02811174
:100DD0000FC081E080937F0210925F0209C0803CC7
:100DE00009F4A6CF883C09F4A3CF883B09F07DCF56
:100DF000E091800281E08E0F80938002F0E0E15A62
:100E0000FD4F80818093BB009091800280917F0292
:100E100029C08091A3028093BB0085EC8093BC0025
:100E200064CF9091C5028091C402981758F5E09163
:100E3000C50281E08E0F8093C502F0E0EC55FD4FB6
:100E40008081E9CFE091C50281E08E0F8093C502D9
:100E50008091BB00F0E0EC55FD4F80839091C5027E
:100E60008091C4029817C8F285E8D8CFE091C502F6
:100E700081E08E0F8093C5028091BB00F0E0EC55BD
:100E8000FD4F80838091C70281115CCF81E0809308
:100E9000A20284EA8093BC001092C80226CF85EC9F
:100EA0008093BC001092C8028091A102803230F47D
:100EB000E091A102F0E0EF57FD4F10826091A10296
:100EC00070E0E091F902F091FA0281E892E0099570
:100ED0001092A1020ACF1092C60234CFEBE0F3E0E9
:100EE0001382128288EE93E0A0E0B0E084839583C1
:100EF000A683B78324E032E03183208325EC30E001
:100F00003587248724EC30E03787268720EC30E0D3
:100F1000318B208B21EC30E0338B228B22EC30E0C4
:100F2000358B248B26EC30E0378B268B118E128E7E
:100F3000138E148EE8EAF3E0138212828483958381
:100F4000A683B78386E192E091838083E4EBF3E0AC
:100F50001382128288E292E09183808387E2848305
:100F600080E1818782E0828713860895789484B532
:100F7000826084BD84B5816084BD85B5826085BD95
:100F800085B5816085BD80916E00816080936E0023
:100F90001092810080918100826080938100809115
:100FA00081008160809381008091800081608093C6
:100FB00080008091B10084608093B1008091B00086
:100FC00081608093B00080917A00846080937A0081
:100FD00080917A00826080937A0080917A008160AB
:100FE00080937A0080917A00806880937A001092D2
:100FF000C100109200031092FF021092FE021092A4
:10100000FD020E94800286EA90E09093FC028093A9
:10101000FB0287EA90E09093FA028093F902109223
:10102000B9038091BE03823018F098E09093B90321
:101030008093BC0362E370E080E090E00E942602AF
:101040006091BF0384EB93E00E94450368EE73E078
:1010500080E090E00E94260260E384EB93E00E942F
:10106000C104CBE4D6E4CE010197F1F760E384EB51
:1010700093E00E94C1042197F1F760E384EB93E0D1
:101080000E94C10483E592E00197F1F760E284EBEE
:1010900093E00E94C1046091B903606240E084EB78
:1010A00093E00E94DA0484E08093BA0340E06CE0AD
:1010B00084EB93E00E94DA0440E061E084EB93E08B
:1010C0000E94DA04CBE3DFE1CE010197F1F712E0F1
:1010D0001093BB0340E066E084EB93E00E94DA04E7
:1010E00040E062E084EB93E00E94DA042197F1F79C
:1010F00088E08093BF0360E084EB93E00E944503A7
:10110000E0911B03F0911C031083E0911703F09111
:1011100018031082E0911903F0911A0380E1808393
:1011200010922303E0911F03F091200386E0808357
:10113000E0911D03F0911E03808180618083E09126
:101140001D03F0911E03808188608083E0911D0360
:10115000F0911E03808180688083E0911D03F091EF
:101160001E0380818F7D808386E00E94870085E05A
:101170000E94870087E00E94870083E00E9487002A
:1011800082E00E94870084E00E9487008FE00E9436
:1011900087008EE00E94870080E10E94870084B172
:1011A0008FEF84B91092020310920103C0910103E2
:1011B000D0910203C031D105A0F460E08C2F0E94D1
:1011C000840460E08C2F0E945E0460E0CE01877092
:1011D00099270E949A042196D0930203C093010399
:1011E000E5CF68EF87E00E9484046FE088E00E940A
:1011F00084046FE089E00E9484046FE08AE00E942A
:10120000840468EF87E00E945E046FE088E00E943B
:101210005E046FE089E00E945E046FE08AE00E9455
:101220005E048DE00E94870040E060E884EB93E07C
:101230000E94DA044AE050E060E372E084EB93E05D
:101240000E94A80063E0A62EB12CCFE7D0E000E01A
:1012500010E08BE093E00E940601892B09F471C035
:101260008BE093E00E94E40090930A0380930903CB
:101270006C01990FEE08FF084AE0C701B601F7FEBE
:101280000DC06DE28BE093E00E944801662777274E
:10129000CB016C197D098E099F094AE00E94F70471
:1012A0008091090390910A038E37910509F049C096
:1012B0008BE093E00E94E40090930803809307037F
:1012C0000E9445058BE093E00E94E40090930603A2
:1012D000809305030E9445058BE093E00E94E400A3
:1012E00090930403809303030E9445052091070314
:1012F000309108034091030323303105C4F579018F
:10130000EE0CFF1CDD24D394DE0C40FF26C0809140
:10131000050390910603BE010E94EB09FC01EE0F4C
:10132000FF1FE050FF4FC080F18061E0C9010E94C3
:101330009A046C2D8E2D0E9484046F2D8D2D0E9499
:1013400084040115110509F484CF0E941201882339
:1013500009F47FCF0E9400007CCF60E0C9010E94A9
:101360009A0460E08E2D0E94840460E0E7CFC901FA
:10137000B5010E94EB097C01EE0CFF1C9C012D5F66
:101380003F4FDD24D394DE0C40FF1BC0809105034A
:1013900090910603BE010E94EB09FC01EE0FFF1FB6
:1013A000E050FF4FC080F18061E0C9010E949A04C3
:1013B0006C2D8E2D0E945E046F2D8D2D0E945E047B
:1013C000C0CF60E0C9010E949A0460E08E2D0E94A7
:1013D0005E0460E0F2CF97FB072E16F4009407D06E
:1013E00077FD09D00E94210A07FC05D03EF49095B4
:1013F00081959F4F0895709561957F4F0895A1E263
:101400001A2EAA1BBB1BFD010DC0AA1FBB1FEE1F7E
:10141000FF1FA217B307E407F50720F0A21BB30BC9
:10142000E40BF50B661F771F881F991F1A9469F745
:1014300060957095809590959B01AC01BD01CF01A1
:101440000895AA1BBB1B51E107C0AA1FBB1FA6170B
:10145000B70710F0A61BB70B881F991F5A95A9F75D
:1014600080959095BC01CD010895EE0FFF1F05906A
:10147000F491E02D0994F894FFCFB93B5E383435F0
:101480003832662FBD2C3A2ADC279F2582238421FF
:10149000A31FDC1D2F1C9A1A1C19B3175E161D15ED
:1014A000EE13CF12C111C210D10FEE0E170E4D0D5B
:1014B0008E0CD90B2F0B8E0AF7096709E00861081B
:1014C000E80777070B07A6064706EC0597054705CB
:1014D000FB04B30470043004F403BB03850353031B
:1014E0002303F602CB02A3027D025902380218023E
:1014F000FA01DD01C201A90191017B0165015101E0
:101500003E012C011C010C01FD00EE00E100D400A5
:10151000C800BD00B200A8009F0096008E008600A3
:101520007E00770070006A0064005E00590054007D
:101530004F004B00470043003F003B0038003500A0
:1015400032002F002C002A00270025002300210054
:101550001F001D001C001A001900170016001500BE
:1015600013001200110010000F000E000E000D00FD
:101570000C000B000B000A000900000000004801ED
:10158000A800D50095010601E400F8000000000065
:101590001603E9022C04BF02E202CF02C0020000DF
:1015A0000000F104A8002C045802504C4159494E47
:0615B000472E2E2E000064
:107800000C94343C0C94513C0C94513C0C94513CE1
:107810000C94513C0C94513C0C94513C0C94513CB4
:107820000C94513C0C94513C0C94513C0C94513CA4
:107830000C94513C0C94513C0C94513C0C94513C94
:107840000C94513C0C94513C0C94513C0C94513C84
:107850000C94513C0C94513C0C94513C0C94513C74
:107860000C94513C0C94513C11241FBECFEFD8E036
:10787000DEBFCDBF11E0A0E0B1E0ECE9FFE702C060
:1078800005900D92A230B107D9F712E0A2E0B1E065
:1078900001C01D92AD30B107E1F70E942D3D0C945F
:1078A000CC3F0C94003C982F959595959595959582
:1078B000905D8F708A307CF0282F295A8091C0000B
:1078C00085FFFCCF9093C6008091C00085FFFCCF60
:1078D0002093C6000895282F205DF0CF982F809127
:1078E000C00085FFFCCF9093C6000895EF92FF92F1
:1078F0000F931F93EE24FF2487018091C00087FD22
:1079000017C00894E11CF11C011D111D81E4E8164B
:1079100082E4F8068FE0080780E0180770F3E09132
:107920000401F091050109958091C00087FFE9CF1E
:107930008091C6001F910F91FF90EF9008950E94D3
:10794000763C982F8091C00085FFFCCF9093C600B5
:1079500091362CF490330CF09053892F089597555D
:10796000892F08951F930E949F3C182F0E949F3CCF
:107970001295107F810F1F9108951F93182F882350
:1079800021F00E94763C1150E1F71F9108951F935A
:10799000182F0E94763C803249F0809103018F5F5E
:1079A000809303018530C1F01F9108958091C0003C
:1079B00085FFFCCF84E18093C6008091C00085FFE5
:1079C000FCCF1093C6008091C00085FFFCCF80E102
:1079D0008093C6001F910895E0910401F091050184
:1079E00009951F9108950E94763C803241F0809164
:1079F00003018F5F80930301853081F008958091AA
:107A0000C00085FFFCCF84E18093C6008091C00058
:107A100085FFFCCF80E18093C6000895E0910401CA
:107A2000F09105010995089540E951E08823A1F0FE
:107A30002D9A28EE33E0FA013197F1F721503040CA
:107A4000D1F72D9828EE33E0FA013197F1F7215064
:107A50003040D1F7815061F708953F924F925F9285
:107A60006F927F928F929F92AF92BF92CF92DF924E
:107A7000EF92FF920F931F93CF93DF93000080E16B
:107A80008093C4001092C50088E18093C10086E015
:107A90008093C2005098589A259A81E00E94143D24
:107AA00024E1F22E9EE1E92E85E9D82E0FE0C02ECA
:107AB00010E1B12EAA24A394B1E49B2EA6E58A2E50
:107AC000F2E57F2EE0E26E2E79E4572E63E5462E36
:107AD00050E5352E0E94763C8033B1F18133B9F107
:107AE000803409F46FC0813409F476C0823409F41B
:107AF00085C0853409F488C0803531F1823521F1A3
:107B0000813511F1853509F485C0863509F48DC0BC
:107B1000843609F496C0843709F403C1853709F423
:107B200072C1863709F466C0809103018F5F80932C
:107B30000301853079F6E0910401F0910501099582
:107B40000E94763C803351F60E94F33CC3CF0E94E2
:107B5000763C803249F78091C00085FFFCCFF092DF
:107B6000C6008091C00085FFFCCF9092C600809136
:107B7000C00085FFFCCF8092C6008091C00085FFC9
:107B8000FCCF7092C6008091C00085FFFCCF609250
:107B9000C6008091C00085FFFCCF5092C600809146
:107BA000C00085FFFCCF4092C6008091C00085FFD9
:107BB000FCCF3092C6008091C00085FFFCCFB09210
:107BC000C60088CF0E94763C863808F4BDCF0E945C
:107BD000763C0E94F33C7ECF0E94763C803809F4CC
:107BE0009CC0813809F40BC1823809F43CC1883942
:107BF00009F48FC080E00E94C73C6CCF84E10E94F2
:107C0000BD3C0E94F33C66CF85E00E94BD3C0E94D3
:107C1000F33C60CF0E94763C809306010E94763C44
:107C2000809307010E94F33C55CF0E94763C80333D
:107C300009F41DC183E00E94BD3C80E00E94C73C66
:107C400049CF0E94763C809309020E94763C809343
:107C5000080280910C028E7F80930C020E94763C79
:107C6000853409F415C18091080290910902892B8D
:107C700089F000E010E00E94763CF801E85FFE4FDA
:107C800080830F5F1F4F80910802909109020817AF
:107C9000190788F30E94763C803209F045CF809125
:107CA0000C0280FF01C16091060170910701660F0F
:107CB000771F7093070160930601A0910802B091AD
:107CC00009021097C9F0E8E0F1E09B01AD014E0F09
:107CD0005F1FF999FECF32BD21BD819180BDFA9A17
:107CE000F99A2F5F3F4FE417F50799F76A0F7B1F4B
:107CF00070930701609306018091C00085FFFCCF5F
:107D0000F092C6008091C00085FFFCCFB092C60003
:107D1000E1CE83E00E94C73CDDCE82E00E94C73CFA
:107D2000D9CE0E94763C809309020E94763C8093D3
:107D300008028091060190910701880F991F909386
:107D40000701809306010E94763C853409F4A6C0A1
:107D500080910C028E7F80930C020E94763C8032D0
:107D600009F0B8CE8091C00085FFFCCFF092C6002C
:107D7000609108027091090261157105B9F140E046
:107D800050E080910C02A82FA170B82FB27011C0E2
:107D9000BB2309F45CC0E0910601F0910701319624
:107DA000F0930701E09306014F5F5F4F46175707B7
:107DB000E8F4AA2369F3F999FECF209106013091E6
:107DC000070132BD21BDF89A90B58091C00085FFB2
:107DD000FCCF9093C6002F5F3F4F30930701209355
:107DE00006014F5F5F4F4617570718F38091C00099
:107DF00085FDE5CE8091C00085FFF8CFE0CE81E023
:107E00000E94C73C67CE0E94763C803209F08CCE3F
:107E10008091C00085FFFCCFF092C6008091C00029
:107E200085FFFCCFE092C6008091C00085FFFCCFAB
:107E3000D092C6008091C00085FFFCCFC092C600E2
:107E40008091C00085FFFCCFB092C60043CEE09188
:107E50000601F091070194918091C00085FFFCCF4D
:107E60009093C6009CCF80E10E94C73C33CE0E9415
:107E7000763C0E94763C182F0E94763C112309F430
:107E800083C0113009F484C08FE00E94C73C22CE29
:107E900080910C02816080930C02E5CE80910C02EF
:107EA000816080930C0259CF809107018823880F4D
:107EB000880B8A2180930B02809106019091070123
:107EC000880F991F90930701809306018091080203
:107ED00080FF09C080910802909109020196909359
:107EE000090280930802F894F999FECF1127E091D6
:107EF0000601F0910701C8E0D1E08091080290915D
:107F00000902103091F40091570001700130D9F34B
:107F100003E000935700E89500915700017001308D
:107F2000D9F301E100935700E89509901990009169
:107F3000570001700130D9F301E000935700E89534
:107F40001395103498F011270091570001700130FB
:107F5000D9F305E000935700E895009157000170B0
:107F60000130D9F301E100935700E895329602976A
:107F700009F0C7CF103011F00296E5CF112480919F
:107F8000C00085FFB9CEBCCE8EE10E94C73CA2CD19
:0E7F900085E90E94C73C9ECDF894FFCF80008B
:00000001FF
