:100000000C945D000C9485000C9485000C94850084
:100010000C9485000C9485000C9485000C9485004C
:100020000C9485000C9485000C9485000C9485003C
:100030000C9485000C9485000C9485000C9485002C
:100040000C9458040C9485000C9485000C94850045
:100050000C9485000C9485000C9485000C9485000C
:100060000C94A2040C94850000000008000201001A
:100070000003040700000000000000000000000072
:10008000250028002B0000000000240027002A0083
:10009000040404040404040402020202020203032E
:1000A0000303030301020408102040800102040836
:1000B0001020010204081020C10511241FBECFEF3B
:1000C000D8E0DEBFCDBF11E0A0E0B1E0E0EEF0E1AE
:1000D00002C005900D92A034B107D9F722E0A0E448
:1000E000B1E001C01D92AB31B207E1F710E0CDE500
:1000F000D0E004C02197FE010E946808CC35D107EA
:10010000C9F70E94E1050C946E080C94000090E081
:10011000FC01EC55FF4F249180579F4FFC018491C7
:10012000882399F090E0880F991FFC01EA57FF4F50
:10013000A591B491FC01E458FF4F859194918FB73C
:10014000F894EC91E22BEC938FBF089508950895F5
:10015000AF92BF92CF92DF92EF92FF920F931F93D5
:10016000CF93DF936C017B018B01040F151FEB0113
:100170005E01AE18BF08C017D10759F06991D601CA
:10018000ED91FC910190F081E02DC6010995892B3C
:1001900079F7C501DF91CF911F910F91FF90EF90FB
:1001A000DF90CF90BF90AF90089590E0FC01E859A8
:1001B000FF4F2491FC01EC55FF4F3491FC01E057B7
:1001C000FF4FE491EE23C9F0222339F0233001F1EF
:1001D000A8F4213019F1223029F1F0E0EE0FFF1FD1
:1001E000E458FF4FA591B4918FB7F894EC91611149
:1001F00026C030953E233C938FBF08952730A9F049
:100200002830C9F0243049F7809180008F7D03C0E9
:10021000809180008F7780938000DFCF84B58F77C7
:1002200084BDDBCF84B58F7DFBCF8091B0008F770D
:100230008093B000D2CF8091B0008F7DF9CF3E2B5C
:10024000DACF3FB7F8948091F7019091F801A0912F
:10025000F901B091FA0126B5A89B05C02F3F19F00E
:100260000196A11DB11D3FBFBA2FA92F982F882736
:10027000BC01CD01620F711D811D911D42E0660F11
:10028000771F881F991F4A95D1F708958F929F92E3
:10029000AF92BF92CF92DF92EF92FF926B017C01FF
:1002A0000E9421014B015C01C114D104E104F1045D
:1002B000B9F00E942101681979098A099B09683EF1
:1002C00073408105910580F321E0C21AD108E1084D
:1002D000F10888EE880E83E0981EA11CB11CE4CFC3
:1002E000FF90EF90DF90CF90BF90AF909F908F9056
:1002F000089520918101260F3327331F21323105C4
:10030000ECF42091CA01FC0190E080E0243069F017
:1003100082E00895A09181012191AC014F595E4F77
:10032000A40FB52FB11D2C930196861798F38091D9
:100330008101680F6093810180E0089581E0089554
:100340001092CA0181E08093C9011092A40161E07A
:1003500082E10E94D50061E083E10E94D500E9EBD3
:10036000F0E080818E7F808380818D7F808388E430
:100370008093B80085E48093BC000895CF93DF9309
:1003800091E0909360018823B9F0C091B800D091BA
:10039000BA008091BC008A7B8093BC0060E082E15F
:1003A0000E94D50060E083E10E94D5000E94A00178
:1003B000D093BA00C093B800DF91CF91089508950B
:1003C000E091020280910102E81730F4F0E0E05C75
:1003D000FE4F808190E008958FEF9FEF08959091F8
:1003E0000202809101022FEF3FEF981748F4E92FA6
:1003F000F0E0E05CFE4F208130E09F5F90930202CE
:10040000C90108958091010290910202891B990B04
:100410000895CF92DF92EF92FF920F931F93CF93A5
:10042000DF937C01CB018A012091D001222389F046
:10043000EB016B01C40ED51ECC15DD0569F0699189
:10044000D701ED91FC910190F081E02DC701099554
:10045000F3CF642F0E947901C801DF91CF911F91E2
:100460000F91FF90EF90DF90CF900895CF93DF939F
:100470001F92CDB7DEB769832091D0012223F9F016
:100480002091FF01203258F021E030E0FC0133835D
:10049000228390E080E00F90DF91CF9108958091CA
:1004A0000002E82FF0E0EF52FE4F998190838F5FBA
:1004B000809300028093FF0181E090E0ECCF61E047
:1004C000CE0101960E947901F7CFCF92DF92EF9291
:1004D000FF920F931F93CF93DF93FC01C48121E020
:1004E0002093D001C093F101109200021092FF01FD
:1004F0008385682B83E092E00E943602D091FF0151
:10050000D13208F092C00E9421016B017C018091E0
:10051000CA01811165C082E08093CA0181E08093A5
:10052000C9018FEF8093C8011092C701D093C60113
:10053000A1EDB1E0E6EAF1E080E0D81385C01092C9
:10054000A5018091A501CC0FC82BC093A501809176
:10055000A401813009F07CC01092A4010E94210105
:100560006B017C018091A5018093BB008091CC013F
:100570009091CD01A091CE01B091CF01892B8A2B12
:100580008B2B99F00E9421010091CC011091CD019B
:100590002091CE013091CF016C197D098E099F0900
:1005A0000617170728073907E0F18091BC0083FD83
:1005B000D9CF85EC8093BC000E9421016B017C01A6
:1005C0008091CA01823009F445C08091C8018F3FF3
:1005D00061F18091C801803241F18091C80125C04C
:1005E0008091CC019091CD01A091CE01B091CF012D
:1005F000892B8A2B8B2B09F48ACF0E942101009131
:10060000CC011091CD012091CE013091CF016C1918
:100610007D098E099F09061717072807390708F073
:1006200076CF8091CB010E94BE0110920002109201
:10063000FF011092D001DF91CF911F910F91FF9098
:10064000EF90DF90CF9008959D9191938F5F75CF3C
:1006500085EEB0CF8091CC019091CD01A091CE01DB
:10066000B091CF01892B8A2B8B2B09F4A9CF0E9443
:1006700021010091CC011091CD012091CE0130914A
:10068000CF016C197D098E099F09061717072807E6
:10069000390708F095CFC5CF089590E080E0089520
:1006A0000F931F93CF938C01C62F0E9465026C2F6E
:1006B0006460C8010E9465026C2F6B7FC8010E94B4
:1006C000650283EC90E00197F1F7CF911F910F91B4
:1006D00008950F931F93CF93DF938C01D62FC42FD0
:1006E000607F642B0E94500380E1D89FB0011124E9
:1006F0006C2BC801DF91CF911F910F910C94500387
:10070000CF93DF93CDB7DEB728970FB6F894DEBF4F
:100710000FBECDBF28E0E0E0F1E0DE0111960190D0
:100720000D922A95E1F7FC012085241710F44FEF74
:10073000420F50E0440F551F21E030E02C0F3D1FC9
:10074000420F531FFA012081620F606840E0289633
:100750000FB6F894DEBF0FBECDBFDF91CF910C94E2
:10076000690341E00E94690381E090E00895CF931E
:10077000DF93C82F60E083E00E94D500D8E06C2FA3
:10078000661F6627661F84E00E94D500CC0F61E0DB
:1007900082E00E94D50060E082E00E94D500D15046
:1007A00071F761E083E0DF91CF910C94D5000E9456
:1007B000B7038BB18F7980648BB98BB18F798BB98B
:1007C00008959BB190669BB90E94B7038BB18F7956
:1007D0008BB90895EF92FF920F931F93CF93DF93FE
:1007E0007C01EB018A0180E00E94E1038E2D0E94D2
:1007F000D70381E00E94E1038F2D0E94D703BE0141
:10080000DD0F880B990B0E944601012B91F480E0CB
:100810000E94E10380E00E94D70381E00E94E1038F
:1008200080E0DF91CF911F910F91FF90EF900C949A
:10083000D703DF91CF911F910F91FF90EF90089513
:1008400085ED8093BC008091CC019091CD01A09169
:10085000CE01B091CF010796A11DB11D23E0B69541
:10086000A795979587952A95D1F72091BC0024FDEF
:1008700003C01092CA0108954091CC015091CD015E
:100880006091CE017091CF01452B462B472B69F328
:100890000097A105B10541F025E32A95F1F7000085
:1008A0000197A109B109E1CF8091CB010C94BE0160
:1008B0001F920F920FB60F9211242F933F938F9395
:1008C0009F93AF93BF938091F3019091F401A09116
:1008D000F501B091F6013091F20123E0230F2D379D
:1008E00058F50196A11DB11D2093F2018093F301EB
:1008F0009093F401A093F501B093F6018091F70174
:100900009091F801A091F901B091FA010196A11D11
:10091000B11D8093F7019093F801A093F901B09372
:10092000FA01BF91AF919F918F913F912F910F90BD
:100930000FBE0F901F90189526E8230F0296A11D59
:10094000B11DD2CF1F920F920FB60F9211242F9389
:100950003F934F935F936F937F938F939F93AF9347
:10096000BF93EF93FF938091B900887F803609F49D
:100970004AC0F0F5883209F4A7C018F5803109F4AF
:100980009BC0B8F4882309F4F9C0883009F494C0F6
:10099000FF91EF91BF91AF919F918F917F916F9157
:1009A0005F914F913F912F910F900FBE0F901F902D
:1009B0001895883109F488C0803251F78093C801B6
:1009C00014C0803409F49DC040F48033B9F38833F7
:1009D000F9F68093C80185ECB0C0803509F485C074
:1009E000883509F496C0883499F60E942004D0CF47
:1009F000883909F48CC038F5883729F050F48836E6
:100A000011F0803729F683E08093CA011092A30188
:100A100057C0883809F47BC0803919F0803809F054
:100A2000B7CF8091A301803208F071C0E091A3019B
:100A300081E08E0F8093A3018091BB00F0E0ED5721
:100A4000FE4F80833DC0803B39F0E0F4803A09F4EA
:100A500079C0883A09F09CCF84E08093CA01109253
:100A6000820110928101E091FD01F091FE01099552
:100A70008091810181110FC081E0809381011092EA
:100A8000610109C0803C09F4A6CF883C09F4A3CFDA
:100A9000883B09F07DCFE091820181E08E0F809349
:100AA0008201F0E0EF59FE4F80818093BB0090916E
:100AB00082018091810129C08091A5018093BB00B2
:100AC00085EC8093BC0064CF9091C7018091C601F2
:100AD000981758F5E091C70181E08E0F8093C70108
:100AE000F0E0EA55FE4F8081E9CFE091C70181E057
:100AF0008E0F8093C7018091BB00F0E0EA55FE4F56
:100B000080839091C7018091C6019817C8F285E84B
:100B1000D8CFE091C70181E08E0F8093C70180910B
:100B2000BB00F0E0EA55FE4F80838091C90181113E
:100B30005CCF81E08093A40184EA8093BC00109292
:100B4000CA0126CF85EC8093BC001092CA01809127
:100B5000A301803230F4E091A301F0E0ED57FE4FA5
:100B600010826091A30170E0E091FB01F091FC0123
:100B700083E891E009951092A3010ACF1092C80171
:100B800034CFE3E0F2E01382128288EE93E0A0E03B
:100B9000B0E084839583A683B7838CE091E0918352
:100BA0008083EFE0F2E0138212828EE191E0918384
:100BB000808387E2848380E1818782E08287138655
:100BC0000895CF93DF93CDB7DEB72C970FB6F89487
:100BD000DEBF0FBECDBF789484B5826084BD84B57E
:100BE000816084BD85B5826085BD85B5816085BD28
:100BF00080916E00816080936E00109281008091E0
:100C00008100826080938100809181008160809367
:100C10008100809180008160809380008091B1008C
:100C200084608093B1008091B00081608093B000B7
:100C300080917A00846080937A0080917A0082604B
:100C400080937A0080917A00816080937A0080910D
:100C50007A00806880937A001092C100109202029C
:100C600010920102109200021092FF010E94A00156
:100C700086EA90E09093FE018093FD0187EA90E080
:100C80009093FC018093FB01109214028091190251
:100C9000823018F098E0909314028093170262E378
:100CA00070E080E090E00E94460160911A028FE0BF
:100CB00092E00E94650268EE73E080E090E00E949E
:100CC000460160E38FE092E00E9450030BE416E4DB
:100CD000C8010197F1F760E38FE092E00E945003B2
:100CE000C8010197F1F760E38FE092E00E945003A2
:100CF00083E592E00197F1F760E28FE092E00E94D5
:100D0000500360911402606240E08FE092E00E9424
:100D1000690384E08093150240E06CE08FE092E08C
:100D20000E94690340E061E08FE092E00E94690365
:100D30000BE31FE1C8010197F1F782E080931602EF
:100D400040E066E08FE092E00E94690340E062E0EC
:100D50008FE092E00E946903C8010197F1F788E0F3
:100D600080931A0260E08FE092E00E94650283E0C7
:100D70000E94870082E00E94870084E00E94870032
:100D80008AB18FEF8AB910E0812F0E94E10380E0E1
:100D90000E94D7031F5F1031B9F787E00E94E1037B
:100DA00088EF0E94D70388E00E94E1038FE00E9451
:100DB000D70389E00E94E1038FE00E94D7038AE015
:100DC0000E94E1038FE00E94D7038091110290916D
:100DD00012029C838B838EE191E09A8389838091B8
:100DE00013028D83809114028E83809115028F836C
:100DF0008091160288878091170289878091180256
:100E00008A87809119028B8780911A028C8740E033
:100E100060E0CE0101960E9480034CE050E066E263
:100E200071E0CE0101960E94A80041E060E0CE0191
:100E300001960E9480034CE050E063E371E0CE0134
:100E400001960E94A80000E010E041E050E06CE252
:100E500071E08BE791E00E94EA0341E050E06CE230
:100E600071E081E991E00E94EA0341E050E06CE228
:100E700071E08BE791E00E94EA0341E050E06CE210
:100E800071E081E991E00E94EA0341E050E06CE208
:100E900071E08BE791E00E94EA0341E050E06CE2F0
:100EA00071E08AEF91E00E94EA0341E050E06CE2D9
:100EB00071E089EA91E00E94EA0341E050E06CE2CF
:100EC00071E08DED91E00E94EA0350E040E064E8BB
:100ED00073E088E392E00E94EA036CE271E080E054
:100EE00090E00E94460141E050E06CE271E08BEB43
:100EF00093E00E94EA0341E050E06CE271E086EF8B
:100F000092E00E94EA0341E050E06CE271E088E385
:100F100092E00E94EA0350E040E068E572E08AEF68
:100F200091E00E94EA036CE271E080E090E00E94B0
:100F3000460141E050E06CE271E086EF92E00E94F1
:100F4000EA0341E050E06CE271E089E592E00E9442
:100F5000EA0341E050E06CE271E08AEF91E00E9428
:100F6000EA0350E040E064E873E08DED91E00E9418
:100F7000EA036CE271E080E090E00E94460141E00B
:100F800050E06CE271E086EF92E00E94EA0341E0FB
:100F900050E06CE271E08BE791E00E94EA0341E0EF
:100FA00050E06CE271E081E991E00E94EA0341E0E7
:100FB00050E06CE271E08BE791E00E94EA0341E0CF
:100FC00050E06CE271E081E991E00E94EA0341E0C7
:100FD00050E06CE271E08BE791E00E94EA0341E0AF
:100FE00050E06CE271E08AEF91E00E94EA0341E098
:100FF00050E06CE271E089EA91E00E94EA0341E08E
:1010000050E06CE271E08DED91E00E94EA0350E067
:1010100040E064E873E088E392E00E94EA036CE257
:1010200071E080E090E00E94460141E050E06CE217
:1010300071E08BEB93E00E94EA0341E050E06CE248
:1010400071E086EF92E00E94EA0341E050E06CE23A
:1010500071E088E392E00E94EA0350E040E068E536
:1010600072E08AEF91E00E94EA036CE271E080E0B6
:1010700090E00E94460141E050E06CE271E086EFB2
:1010800092E00E94EA0341E050E06CE271E08DEDF5
:1010900091E00E94EA0341E050E06CE271E08AEFE7
:1010A00091E00E94EA0350E040E064E873E088E3E6
:1010B00092E00E94EA0368E572E080E090E00E941E
:1010C00046010115110509F4C0CE0E940000BDCEF5
:1010D000EE0FFF1F0590F491E02D0994F894FFCFD7
:1010E0000000400014005400000000003602090215
:1010F0004D03DF010202EF01E00100000000B10337
:10110000A8004D034C037C4323347C4420347C45AD
:101110002334007C3132307C2039367C313230004F
:00000001FF
